{
  "contractName": "IGVCore",
  "abi": [
    {
      "constant": true,
      "inputs": [],
      "name": "totalCampaigns",
      "outputs": [
        {
          "name": "",
          "type": "uint256"
        }
      ],
      "payable": false,
      "stateMutability": "view",
      "type": "function"
    },
    {
      "constant": true,
      "inputs": [
        {
          "name": "",
          "type": "uint256"
        }
      ],
      "name": "certificateIndexToApproved",
      "outputs": [
        {
          "name": "",
          "type": "address"
        }
      ],
      "payable": false,
      "stateMutability": "view",
      "type": "function"
    },
    {
      "constant": true,
      "inputs": [],
      "name": "name",
      "outputs": [
        {
          "name": "",
          "type": "string"
        }
      ],
      "payable": false,
      "stateMutability": "view",
      "type": "function"
    },
    {
      "constant": false,
      "inputs": [
        {
          "name": "_to",
          "type": "address"
        },
        {
          "name": "_tokenId",
          "type": "uint256"
        }
      ],
      "name": "approve",
      "outputs": [],
      "payable": false,
      "stateMutability": "nonpayable",
      "type": "function"
    },
    {
      "constant": true,
      "inputs": [],
      "name": "implementsERC721",
      "outputs": [
        {
          "name": "",
          "type": "bool"
        }
      ],
      "payable": false,
      "stateMutability": "pure",
      "type": "function"
    },
    {
      "constant": true,
      "inputs": [],
      "name": "campaignEscrowAmount",
      "outputs": [
        {
          "name": "",
          "type": "uint256"
        }
      ],
      "payable": false,
      "stateMutability": "view",
      "type": "function"
    },
    {
      "constant": true,
      "inputs": [],
      "name": "totalSupply",
      "outputs": [
        {
          "name": "",
          "type": "uint256"
        }
      ],
      "payable": false,
      "stateMutability": "view",
      "type": "function"
    },
    {
      "constant": false,
      "inputs": [
        {
          "name": "_from",
          "type": "address"
        },
        {
          "name": "_to",
          "type": "address"
        },
        {
          "name": "_tokenId",
          "type": "uint256"
        }
      ],
      "name": "transferFrom",
      "outputs": [],
      "payable": false,
      "stateMutability": "nonpayable",
      "type": "function"
    },
    {
      "constant": false,
      "inputs": [
        {
          "name": "_campaignId",
          "type": "uint256"
        }
      ],
      "name": "claimEscrow",
      "outputs": [],
      "payable": false,
      "stateMutability": "nonpayable",
      "type": "function"
    },
    {
      "constant": true,
      "inputs": [
        {
          "name": "",
          "type": "uint256"
        },
        {
          "name": "",
          "type": "uint256"
        }
      ],
      "name": "campaignTokensIssued",
      "outputs": [
        {
          "name": "",
          "type": "uint64"
        }
      ],
      "payable": false,
      "stateMutability": "view",
      "type": "function"
    },
    {
      "constant": true,
      "inputs": [
        {
          "name": "_campaignId",
          "type": "uint256"
        },
        {
          "name": "_tokenIdx",
          "type": "uint64"
        }
      ],
      "name": "getToken",
      "outputs": [
        {
          "name": "campaignId",
          "type": "uint256"
        },
        {
          "name": "supply",
          "type": "uint64"
        },
        {
          "name": "name",
          "type": "string"
        },
        {
          "name": "price",
          "type": "uint256"
        }
      ],
      "payable": false,
      "stateMutability": "view",
      "type": "function"
    },
    {
      "constant": true,
      "inputs": [],
      "name": "founderAddress",
      "outputs": [
        {
          "name": "",
          "type": "address"
        }
      ],
      "payable": false,
      "stateMutability": "view",
      "type": "function"
    },
    {
      "constant": true,
      "inputs": [
        {
          "name": "_owner",
          "type": "address"
        },
        {
          "name": "_index",
          "type": "uint256"
        }
      ],
      "name": "tokensOfOwnerByIndex",
      "outputs": [
        {
          "name": "tokenId",
          "type": "uint256"
        }
      ],
      "payable": false,
      "stateMutability": "view",
      "type": "function"
    },
    {
      "constant": true,
      "inputs": [
        {
          "name": "_id",
          "type": "uint256"
        }
      ],
      "name": "getCertificate",
      "outputs": [
        {
          "name": "campaignId",
          "type": "uint128"
        },
        {
          "name": "tokenIdx",
          "type": "uint16"
        },
        {
          "name": "owner",
          "type": "address"
        }
      ],
      "payable": false,
      "stateMutability": "view",
      "type": "function"
    },
    {
      "constant": true,
      "inputs": [
        {
          "name": "_id",
          "type": "uint256"
        }
      ],
      "name": "getCampaign",
      "outputs": [
        {
          "name": "startBlock",
          "type": "uint256"
        },
        {
          "name": "endBlock",
          "type": "uint256"
        },
        {
          "name": "owner",
          "type": "address"
        },
        {
          "name": "campaignName",
          "type": "string"
        }
      ],
      "payable": false,
      "stateMutability": "view",
      "type": "function"
    },
    {
      "constant": false,
      "inputs": [
        {
          "name": "_campaignEscrowAmount",
          "type": "uint64"
        }
      ],
      "name": "changeEscrowAmount",
      "outputs": [],
      "payable": false,
      "stateMutability": "nonpayable",
      "type": "function"
    },
    {
      "constant": true,
      "inputs": [
        {
          "name": "_tokenId",
          "type": "uint256"
        }
      ],
      "name": "ownerOf",
      "outputs": [
        {
          "name": "owner",
          "type": "address"
        }
      ],
      "payable": false,
      "stateMutability": "view",
      "type": "function"
    },
    {
      "constant": true,
      "inputs": [
        {
          "name": "_owner",
          "type": "address"
        }
      ],
      "name": "balanceOf",
      "outputs": [
        {
          "name": "count",
          "type": "uint256"
        }
      ],
      "payable": false,
      "stateMutability": "view",
      "type": "function"
    },
    {
      "constant": true,
      "inputs": [
        {
          "name": "",
          "type": "uint256"
        }
      ],
      "name": "campaignEscrowBalance",
      "outputs": [
        {
          "name": "",
          "type": "uint256"
        }
      ],
      "payable": false,
      "stateMutability": "view",
      "type": "function"
    },
    {
      "constant": true,
      "inputs": [],
      "name": "ownerAddress",
      "outputs": [
        {
          "name": "",
          "type": "address"
        }
      ],
      "payable": false,
      "stateMutability": "view",
      "type": "function"
    },
    {
      "constant": false,
      "inputs": [
        {
          "name": "_startBlock",
          "type": "uint256"
        },
        {
          "name": "_endBlock",
          "type": "uint256"
        },
        {
          "name": "_campaignName",
          "type": "string"
        }
      ],
      "name": "createCampaign",
      "outputs": [
        {
          "name": "",
          "type": "uint256"
        }
      ],
      "payable": true,
      "stateMutability": "payable",
      "type": "function"
    },
    {
      "constant": true,
      "inputs": [],
      "name": "symbol",
      "outputs": [
        {
          "name": "",
          "type": "string"
        }
      ],
      "payable": false,
      "stateMutability": "view",
      "type": "function"
    },
    {
      "constant": false,
      "inputs": [
        {
          "name": "_campaignId",
          "type": "uint256"
        },
        {
          "name": "_supply",
          "type": "uint64"
        },
        {
          "name": "_name",
          "type": "string"
        },
        {
          "name": "_price",
          "type": "uint256"
        }
      ],
      "name": "createToken",
      "outputs": [],
      "payable": false,
      "stateMutability": "nonpayable",
      "type": "function"
    },
    {
      "constant": true,
      "inputs": [
        {
          "name": "",
          "type": "uint256"
        },
        {
          "name": "",
          "type": "uint256"
        }
      ],
      "name": "campaignTokens",
      "outputs": [
        {
          "name": "campaignId",
          "type": "uint256"
        },
        {
          "name": "supply",
          "type": "uint64"
        },
        {
          "name": "name",
          "type": "string"
        },
        {
          "name": "price",
          "type": "uint256"
        }
      ],
      "payable": false,
      "stateMutability": "view",
      "type": "function"
    },
    {
      "constant": false,
      "inputs": [
        {
          "name": "_newOwner",
          "type": "address"
        }
      ],
      "name": "changeOwner",
      "outputs": [],
      "payable": false,
      "stateMutability": "nonpayable",
      "type": "function"
    },
    {
      "constant": false,
      "inputs": [
        {
          "name": "_to",
          "type": "address"
        },
        {
          "name": "_tokenId",
          "type": "uint256"
        }
      ],
      "name": "transfer",
      "outputs": [],
      "payable": false,
      "stateMutability": "nonpayable",
      "type": "function"
    },
    {
      "constant": false,
      "inputs": [
        {
          "name": "_campaignBlockDelay",
          "type": "uint64"
        }
      ],
      "name": "changeBlockDelay",
      "outputs": [],
      "payable": false,
      "stateMutability": "nonpayable",
      "type": "function"
    },
    {
      "constant": true,
      "inputs": [],
      "name": "campaignBlockDelay",
      "outputs": [
        {
          "name": "",
          "type": "uint64"
        }
      ],
      "payable": false,
      "stateMutability": "view",
      "type": "function"
    },
    {
      "constant": true,
      "inputs": [
        {
          "name": "",
          "type": "uint256"
        }
      ],
      "name": "certificateIndexToOwner",
      "outputs": [
        {
          "name": "",
          "type": "address"
        }
      ],
      "payable": false,
      "stateMutability": "view",
      "type": "function"
    },
    {
      "constant": true,
      "inputs": [
        {
          "name": "",
          "type": "uint256"
        }
      ],
      "name": "campaignIndexToOwner",
      "outputs": [
        {
          "name": "",
          "type": "address"
        }
      ],
      "payable": false,
      "stateMutability": "view",
      "type": "function"
    },
    {
      "constant": false,
      "inputs": [
        {
          "name": "_campaignId",
          "type": "uint128"
        },
        {
          "name": "_tokenIdx",
          "type": "uint16"
        }
      ],
      "name": "createCertificate",
      "outputs": [],
      "payable": true,
      "stateMutability": "payable",
      "type": "function"
    },
    {
      "inputs": [],
      "payable": false,
      "stateMutability": "nonpayable",
      "type": "constructor"
    },
    {
      "anonymous": false,
      "inputs": [
        {
          "indexed": true,
          "name": "owner",
          "type": "address"
        },
        {
          "indexed": false,
          "name": "campaignId",
          "type": "uint256"
        }
      ],
      "name": "CreateCampaign",
      "type": "event"
    },
    {
      "anonymous": false,
      "inputs": [
        {
          "indexed": true,
          "name": "campaignId",
          "type": "uint256"
        },
        {
          "indexed": false,
          "name": "name",
          "type": "string"
        }
      ],
      "name": "CreateToken",
      "type": "event"
    },
    {
      "anonymous": false,
      "inputs": [
        {
          "indexed": true,
          "name": "from",
          "type": "address"
        },
        {
          "indexed": true,
          "name": "to",
          "type": "address"
        },
        {
          "indexed": true,
          "name": "tokenId",
          "type": "uint256"
        }
      ],
      "name": "Transfer",
      "type": "event"
    },
    {
      "anonymous": false,
      "inputs": [
        {
          "indexed": true,
          "name": "owner",
          "type": "address"
        },
        {
          "indexed": true,
          "name": "approved",
          "type": "address"
        },
        {
          "indexed": true,
          "name": "tokenId",
          "type": "uint256"
        }
      ],
      "name": "Approval",
      "type": "event"
    },
    {
      "anonymous": false,
      "inputs": [
        {
          "indexed": true,
          "name": "owner",
          "type": "address"
        },
        {
          "indexed": false,
          "name": "certificateId",
          "type": "uint256"
        }
      ],
      "name": "Issue",
      "type": "event"
    }
  ],
  "bytecode": "0x60606040526040805190810160405280600c81526020017f492047617665204173736574000000000000000000000000000000000000000081525060049080519060200190620000519291906200092c565b506040805190810160405280600381526020017f493c330000000000000000000000000000000000000000000000000000000000815250600590805190602001906200009f9291906200092c565b5067016345785d8a0000600d556103e8600e60006101000a81548167ffffffffffffffff021916908367ffffffffffffffff1602179055503415620000e357600080fd5b33600b60006101000a81548173ffffffffffffffffffffffffffffffffffffffff021916908373ffffffffffffffffffffffffffffffffffffffff16021790555033600c60006101000a81548173ffffffffffffffffffffffffffffffffffffffff021916908373ffffffffffffffffffffffffffffffffffffffff160217905550620001bf6000806000806040805190810160405280601081526020017f47656e657369732043616d706169676e00000000000000000000000000000000815250620002446401000000000262001e50176401000000009004565b50620002196000806040805190810160405280600d81526020017f47656e6573697320546f6b656e000000000000000000000000000000000000008152506000620004316401000000000262002037176401000000009004565b506200023d6000806000620005bd640100000000026200248e176401000000009004565b5062000d99565b600062000250620009b3565b600060a0604051908101604052808981526020018881526020018673ffffffffffffffffffffffffffffffffffffffff168152602001858152602001600015158152509150600160068054806001018281620002ad919062000a03565b91600052602060002090600502016000859091909150600082015181600001556020820151816001015560408201518160020160006101000a81548173ffffffffffffffffffffffffffffffffffffffff021916908373ffffffffffffffffffffffffffffffffffffffff16021790555060608201518160030190805190602001906200033c92919062000a38565b5060808201518160040160006101000a81548160ff0219169083151502179055505050039050846007600083815260200190815260200160002060006101000a81548173ffffffffffffffffffffffffffffffffffffffff021916908373ffffffffffffffffffffffffffffffffffffffff1602179055508560086000838152602001908152602001600020600082825401925050819055508473ffffffffffffffffffffffffffffffffffffffff167f8947cb78db2ffa53132a4e627ea0e20920cf6edd68b7b07989687e1a28e0bac7826040518082815260200191505060405180910390a2809250505095945050505050565b60006200043d62000abf565b60006080604051908101604052808881526020018767ffffffffffffffff16815260200186815260200185815250915060096000888152602001908152602001600020805480600101828162000494919062000afa565b916000526020600020906004020160008490919091506000820151816000015560208201518160010160006101000a81548167ffffffffffffffff021916908367ffffffffffffffff16021790555060408201518160020190805190602001906200050192919062000a38565b506060820151816003015550509050867fe5b49d0afcc7ff69d7e3951a9be2177564ee3f4e219a8ae6b3d240b04d359f9a866040518080602001828103825283818151815260200191508051906020019080838360005b838110156200057557808201518184015260208101905062000558565b50505050905090810190601f168015620005a35780820380516001836020036101000a031916815260200191505b509250505060405180910390a28092505050949350505050565b6000620005c962000b2f565b60006060604051908101604052808573ffffffffffffffffffffffffffffffffffffffff168152602001876fffffffffffffffffffffffffffffffff1681526020018661ffff1681525091506001600080548060010182816200062d919062000b7d565b9160005260206000209060020201600085909190915060008201518160000160006101000a81548173ffffffffffffffffffffffffffffffffffffffff021916908373ffffffffffffffffffffffffffffffffffffffff16021790555060208201518160010160006101000a8154816fffffffffffffffffffffffffffffffff02191690836fffffffffffffffffffffffffffffffff16021790555060408201518160010160106101000a81548161ffff021916908361ffff16021790555050500390508373ffffffffffffffffffffffffffffffffffffffff167fc65a3f767206d2fdcede0b094a4840e01c0dd0be1888b5ba800346eaa0123c16826040518082815260200191505060405180910390a262000761600085836200076d6401000000000262001c92176401000000009004565b80925050509392505050565b600260008373ffffffffffffffffffffffffffffffffffffffff1673ffffffffffffffffffffffffffffffffffffffff16815260200190815260200160002060008154809291906001019190505550816001600083815260200190815260200160002060006101000a81548173ffffffffffffffffffffffffffffffffffffffff021916908373ffffffffffffffffffffffffffffffffffffffff160217905550600073ffffffffffffffffffffffffffffffffffffffff168373ffffffffffffffffffffffffffffffffffffffff16141515620008cc57600260008473ffffffffffffffffffffffffffffffffffffffff1673ffffffffffffffffffffffffffffffffffffffff16815260200190815260200160002060008154809291906001900391905055506003600082815260200190815260200160002060006101000a81549073ffffffffffffffffffffffffffffffffffffffff02191690555b808273ffffffffffffffffffffffffffffffffffffffff168473ffffffffffffffffffffffffffffffffffffffff167fddf252ad1be2c89b69c2b068fc378daa952ba7f163c4a11628f55a4df523b3ef60405160405180910390a4505050565b828054600181600116156101000203166002900490600052602060002090601f016020900481019282601f106200096f57805160ff1916838001178555620009a0565b82800160010185558215620009a0579182015b828111156200099f57825182559160200191906001019062000982565b5b509050620009af919062000bb2565b5090565b60a0604051908101604052806000815260200160008152602001600073ffffffffffffffffffffffffffffffffffffffff168152602001620009f462000bda565b81526020016000151581525090565b81548183558181151162000a335760050281600502836000526020600020918201910162000a32919062000bee565b5b505050565b828054600181600116156101000203166002900490600052602060002090601f016020900481019282601f1062000a7b57805160ff191683800117855562000aac565b8280016001018555821562000aac579182015b8281111562000aab57825182559160200191906001019062000a8e565b5b50905062000abb919062000bb2565b5090565b60806040519081016040528060008152602001600067ffffffffffffffff16815260200162000aed62000bda565b8152602001600081525090565b81548183558181151162000b2a5760040281600402836000526020600020918201910162000b29919062000c6d565b5b505050565b606060405190810160405280600073ffffffffffffffffffffffffffffffffffffffff16815260200160006fffffffffffffffffffffffffffffffff168152602001600061ffff1681525090565b81548183558181151162000bad5760020281600202836000526020600020918201910162000bac919062000ccc565b5b505050565b62000bd791905b8082111562000bd357600081600090555060010162000bb9565b5090565b90565b602060405190810160405280600081525090565b62000c6a91905b8082111562000c665760008082016000905560018201600090556002820160006101000a81549073ffffffffffffffffffffffffffffffffffffffff021916905560038201600062000c48919062000d4d565b6004820160006101000a81549060ff02191690555060050162000bf5565b5090565b90565b62000cc991905b8082111562000cc5576000808201600090556001820160006101000a81549067ffffffffffffffff021916905560028201600062000cb3919062000d4d565b60038201600090555060040162000c74565b5090565b90565b62000d4a91905b8082111562000d4657600080820160006101000a81549073ffffffffffffffffffffffffffffffffffffffff02191690556001820160006101000a8154906fffffffffffffffffffffffffffffffff02191690556001820160106101000a81549061ffff02191690555060020162000cd3565b5090565b90565b50805460018160011615610100020316600290046000825580601f1062000d75575062000d96565b601f01602090049060005260206000209081019062000d95919062000bb2565b5b50565b61274e8062000da96000396000f30060606040526004361061018b576000357c0100000000000000000000000000000000000000000000000000000000900463ffffffff16806302932f561461019057806302b57c4b146101b957806306fdde031461021c578063095ea7b3146102aa5780631051db34146102ec578063173071341461031957806318160ddd1461034257806323b872dd1461036b5780632ce947db146103cc578063369b2f9d146103ef5780634414ed9a1461044357806346bb28331461051b5780634707f44f1461057057806351640fee146105c65780635598f8cc146106635780635cceb24b146107405780636352211e1461076d57806370a08231146107d057806379b42ccd1461081d5780638f84aa091461085457806391cbf44e146108a957806395d89b41146109215780639f0fd316146109af578063a20fbdf414610a31578063a6f9dae114610b1c578063a9059cbb14610b55578063ac1ac01514610b97578063ae3db27e14610bc4578063c9178f8d14610c01578063ced3c6ad14610c64578063e54f3c7b14610cc7575b600080fd5b341561019b57600080fd5b6101a3610cfe565b6040518082815260200191505060405180910390f35b34156101c457600080fd5b6101da6004808035906020019091905050610d0e565b604051808273ffffffffffffffffffffffffffffffffffffffff1673ffffffffffffffffffffffffffffffffffffffff16815260200191505060405180910390f35b341561022757600080fd5b61022f610d41565b6040518080602001828103825283818151815260200191508051906020019080838360005b8381101561026f578082015181840152602081019050610254565b50505050905090810190601f16801561029c5780820380516001836020036101000a031916815260200191505b509250505060405180910390f35b34156102b557600080fd5b6102ea600480803573ffffffffffffffffffffffffffffffffffffffff16906020019091908035906020019091905050610ddf565b005b34156102f757600080fd5b6102ff610e5d565b604051808215151515815260200191505060405180910390f35b341561032457600080fd5b61032c610e66565b6040518082815260200191505060405180910390f35b341561034d57600080fd5b610355610e6c565b6040518082815260200191505060405180910390f35b341561037657600080fd5b6103ca600480803573ffffffffffffffffffffffffffffffffffffffff1690602001909190803573ffffffffffffffffffffffffffffffffffffffff16906020019091908035906020019091905050610e7c565b005b34156103d757600080fd5b6103ed6004808035906020019091905050610eb6565b005b34156103fa57600080fd5b6104196004808035906020019091908035906020019091905050610ff1565b604051808267ffffffffffffffff1667ffffffffffffffff16815260200191505060405180910390f35b341561044e57600080fd5b610477600480803590602001909190803567ffffffffffffffff1690602001909190505061103d565b604051808581526020018467ffffffffffffffff1667ffffffffffffffff16815260200180602001838152602001828103825284818151815260200191508051906020019080838360005b838110156104dd5780820151818401526020810190506104c2565b50505050905090810190601f16801561050a5780820380516001836020036101000a031916815260200191505b509550505050505060405180910390f35b341561052657600080fd5b61052e611157565b604051808273ffffffffffffffffffffffffffffffffffffffff1673ffffffffffffffffffffffffffffffffffffffff16815260200191505060405180910390f35b341561057b57600080fd5b6105b0600480803573ffffffffffffffffffffffffffffffffffffffff1690602001909190803590602001909190505061117d565b6040518082815260200191505060405180910390f35b34156105d157600080fd5b6105e76004808035906020019091905050611234565b60405180846fffffffffffffffffffffffffffffffff166fffffffffffffffffffffffffffffffff1681526020018361ffff1661ffff1681526020018273ffffffffffffffffffffffffffffffffffffffff1673ffffffffffffffffffffffffffffffffffffffff168152602001935050505060405180910390f35b341561066e57600080fd5b61068460048080359060200190919050506112c0565b604051808581526020018481526020018373ffffffffffffffffffffffffffffffffffffffff1673ffffffffffffffffffffffffffffffffffffffff16815260200180602001828103825283818151815260200191508051906020019080838360005b838110156107025780820151818401526020810190506106e7565b50505050905090810190601f16801561072f5780820380516001836020036101000a031916815260200191505b509550505050505060405180910390f35b341561074b57600080fd5b61076b600480803567ffffffffffffffff169060200190919050506113ca565b005b341561077857600080fd5b61078e600480803590602001909190505061143c565b604051808273ffffffffffffffffffffffffffffffffffffffff1673ffffffffffffffffffffffffffffffffffffffff16815260200191505060405180910390f35b34156107db57600080fd5b610807600480803573ffffffffffffffffffffffffffffffffffffffff169060200190919050506114b5565b6040518082815260200191505060405180910390f35b341561082857600080fd5b61083e60048080359060200190919050506114fe565b6040518082815260200191505060405180910390f35b341561085f57600080fd5b610867611516565b604051808273ffffffffffffffffffffffffffffffffffffffff1673ffffffffffffffffffffffffffffffffffffffff16815260200191505060405180910390f35b61090b600480803590602001909190803590602001909190803590602001908201803590602001908080601f0160208091040260200160405190810160405280939291908181526020018383808284378201915050505050509190505061153c565b6040518082815260200191505060405180910390f35b341561092c57600080fd5b6109346115a6565b6040518080602001828103825283818151815260200191508051906020019080838360005b83811015610974578082015181840152602081019050610959565b50505050905090810190601f1680156109a15780820380516001836020036101000a031916815260200191505b509250505060405180910390f35b34156109ba57600080fd5b610a2f600480803590602001909190803567ffffffffffffffff1690602001909190803590602001908201803590602001908080601f01602080910402602001604051908101604052809392919081815260200183838082843782019150505050505091908035906020019091905050611644565b005b3415610a3c57600080fd5b610a5b600480803590602001909190803590602001909190505061175e565b604051808581526020018467ffffffffffffffff1667ffffffffffffffff16815260200180602001838152602001828103825284818154600181600116156101000203166002900481526020019150805460018160011615610100020316600290048015610b0a5780601f10610adf57610100808354040283529160200191610b0a565b820191906000526020600020905b815481529060010190602001808311610aed57829003601f168201915b50509550505050505060405180910390f35b3415610b2757600080fd5b610b53600480803573ffffffffffffffffffffffffffffffffffffffff169060200190919050506117bd565b005b3415610b6057600080fd5b610b95600480803573ffffffffffffffffffffffffffffffffffffffff1690602001909190803590602001909190505061185f565b005b3415610ba257600080fd5b610bc2600480803567ffffffffffffffff169060200190919050506118bf565b005b3415610bcf57600080fd5b610bd7611949565b604051808267ffffffffffffffff1667ffffffffffffffff16815260200191505060405180910390f35b3415610c0c57600080fd5b610c226004808035906020019091905050611963565b604051808273ffffffffffffffffffffffffffffffffffffffff1673ffffffffffffffffffffffffffffffffffffffff16815260200191505060405180910390f35b3415610c6f57600080fd5b610c856004808035906020019091905050611996565b604051808273ffffffffffffffffffffffffffffffffffffffff1673ffffffffffffffffffffffffffffffffffffffff16815260200191505060405180910390f35b610cfc60048080356fffffffffffffffffffffffffffffffff1690602001909190803561ffff169060200190919050506119c9565b005b6000600160068054905003905090565b60036020528060005260406000206000915054906101000a900473ffffffffffffffffffffffffffffffffffffffff1681565b60048054600181600116156101000203166002900480601f016020809104026020016040519081016040528092919081815260200182805460018160011615610100020316600290048015610dd75780601f10610dac57610100808354040283529160200191610dd7565b820191906000526020600020905b815481529060010190602001808311610dba57829003601f168201915b505050505081565b610de93382611b64565b1515610df457600080fd5b610dfe8183611bd0565b808273ffffffffffffffffffffffffffffffffffffffff163373ffffffffffffffffffffffffffffffffffffffff167f8c5be1e5ebec7d5bd14f71427d1e84f3dd0314c0f7b2291e5b200ac8c7c3b92560405160405180910390a45050565b60006001905090565b600d5481565b6000600160008054905003905090565b610e863382611c26565b1515610e9157600080fd5b610e9b8382611b64565b1515610ea657600080fd5b610eb1838383611c92565b505050565b60008060008060086000868152602001908152602001600020541415610edb57600080fd5b3373ffffffffffffffffffffffffffffffffffffffff166007600086815260200190815260200160002060009054906101000a900473ffffffffffffffffffffffffffffffffffffffff1673ffffffffffffffffffffffffffffffffffffffff16141515610f4857600080fd5b600684815481101515610f5757fe5b90600052602060002090600502019250826001015491508143111515610f7c57600080fd5b60086000858152602001908152602001600020549050600060086000868152602001908152602001600020819055503373ffffffffffffffffffffffffffffffffffffffff166108fc829081150290604051600060405180830381858888f193505050501515610feb57600080fd5b50505050565b600a6020528160005260406000208181548110151561100c57fe5b9060005260206000209060049182820401919006600802915091509054906101000a900467ffffffffffffffff1681565b6000806110486121ba565b600080600960008881526020019081526020016000208667ffffffffffffffff1681548110151561107557fe5b90600052602060002090600402019050806000015494508060010160009054906101000a900467ffffffffffffffff169350806002018054600181600116156101000203166002900480601f01602080910402602001604051908101604052809291908181526020018280546001816001161561010002031660029004801561113f5780601f106111145761010080835404028352916020019161113f565b820191906000526020600020905b81548152906001019060200180831161112257829003601f168201915b50505050509250806003015491505092959194509250565b600b60009054906101000a900473ffffffffffffffffffffffffffffffffffffffff1681565b6000806000809150600190505b611192610e6c565b81111515611227578473ffffffffffffffffffffffffffffffffffffffff166001600083815260200190815260200160002060009054906101000a900473ffffffffffffffffffffffffffffffffffffffff1673ffffffffffffffffffffffffffffffffffffffff16141561121a57838214156112115780925061122c565b81806001019250505b808060010191505061118a565b600080fd5b505092915050565b60008060008060008581548110151561124957fe5b906000526020600020906002020190508060010160009054906101000a90046fffffffffffffffffffffffffffffffff1693508060010160109054906101000a900461ffff1692508060000160009054906101000a900473ffffffffffffffffffffffffffffffffffffffff169150509193909250565b60008060006112cd6121ba565b60006006868154811015156112de57fe5b9060005260206000209060050201905080600001549450806001015493508060020160009054906101000a900473ffffffffffffffffffffffffffffffffffffffff169250806003018054600181600116156101000203166002900480601f0160208091040260200160405190810160405280929190818152602001828054600181600116156101000203166002900480156113bb5780601f10611390576101008083540402835291602001916113bb565b820191906000526020600020905b81548152906001019060200180831161139e57829003601f168201915b50505050509150509193509193565b600c60009054906101000a900473ffffffffffffffffffffffffffffffffffffffff168073ffffffffffffffffffffffffffffffffffffffff163373ffffffffffffffffffffffffffffffffffffffff1614151561142757600080fd5b8167ffffffffffffffff16600d819055505050565b60006001600083815260200190815260200160002060009054906101000a900473ffffffffffffffffffffffffffffffffffffffff169050600073ffffffffffffffffffffffffffffffffffffffff168173ffffffffffffffffffffffffffffffffffffffff16141515156114b057600080fd5b919050565b6000600260008373ffffffffffffffffffffffffffffffffffffffff1673ffffffffffffffffffffffffffffffffffffffff168152602001908152602001600020549050919050565b60086020528060005260406000206000915090505481565b600c60009054906101000a900473ffffffffffffffffffffffffffffffffffffffff1681565b6000600d543414151561154e57600080fd5b83600e60009054906101000a900467ffffffffffffffff1667ffffffffffffffff1643011115151561157f57600080fd5b82841115151561158e57600080fd5b61159d8484600d543386611e50565b90509392505050565b60058054600181600116156101000203166002900480601f01602080910402602001604051908101604052809291908181526020018280546001816001161561010002031660029004801561163c5780601f106116115761010080835404028352916020019161163c565b820191906000526020600020905b81548152906001019060200180831161161f57829003601f168201915b505050505081565b60003373ffffffffffffffffffffffffffffffffffffffff166007600087815260200190815260200160002060009054906101000a900473ffffffffffffffffffffffffffffffffffffffff1673ffffffffffffffffffffffffffffffffffffffff161415156116b357600080fd5b60008467ffffffffffffffff161115156116cc57600080fd5b6127108467ffffffffffffffff161015156116e657600080fd5b6000851115156116f557600080fd5b60068581548110151561170457fe5b90600052602060002090600502019050600015158160040160009054906101000a900460ff16151514151561173857600080fd5b80600001544310151561174a57600080fd5b61175685858585612037565b505050505050565b60096020528160005260406000208181548110151561177957fe5b9060005260206000209060040201600091509150508060000154908060010160009054906101000a900467ffffffffffffffff169080600201908060030154905084565b600c60009054906101000a900473ffffffffffffffffffffffffffffffffffffffff168073ffffffffffffffffffffffffffffffffffffffff163373ffffffffffffffffffffffffffffffffffffffff1614151561181a57600080fd5b81600c60006101000a81548173ffffffffffffffffffffffffffffffffffffffff021916908373ffffffffffffffffffffffffffffffffffffffff1602179055505050565b600073ffffffffffffffffffffffffffffffffffffffff168273ffffffffffffffffffffffffffffffffffffffff161415151561189b57600080fd5b6118a53382611b64565b15156118b057600080fd5b6118bb338383611c92565b5050565b600c60009054906101000a900473ffffffffffffffffffffffffffffffffffffffff168073ffffffffffffffffffffffffffffffffffffffff163373ffffffffffffffffffffffffffffffffffffffff1614151561191c57600080fd5b81600e60006101000a81548167ffffffffffffffff021916908367ffffffffffffffff1602179055505050565b600e60009054906101000a900467ffffffffffffffff1681565b60016020528060005260406000206000915054906101000a900473ffffffffffffffffffffffffffffffffffffffff1681565b60076020528060005260406000206000915054906101000a900473ffffffffffffffffffffffffffffffffffffffff1681565b600080600080856fffffffffffffffffffffffffffffffff161115156119ee57600080fd5b6006856fffffffffffffffffffffffffffffffff16815481101515611a0f57fe5b90600052602060002090600502019250600015158360040160009054906101000a900460ff161515141515611a4357600080fd5b43836000015410151515611a5657600080fd5b43836001015411151515611a6957600080fd5b60096000866fffffffffffffffffffffffffffffffff1681526020019081526020016000208461ffff16815481101515611a9f57fe5b90600052602060002090600402019150600a6000866fffffffffffffffffffffffffffffffff1681526020019081526020016000208461ffff16815481101515611ae557fe5b90600052602060002090600491828204019190066008029054906101000a900467ffffffffffffffff1690508160010160009054906101000a900467ffffffffffffffff1667ffffffffffffffff168167ffffffffffffffff16101515611b4b57600080fd5b816003015434141515611b5d57600080fd5b5050505050565b60008273ffffffffffffffffffffffffffffffffffffffff166001600084815260200190815260200160002060009054906101000a900473ffffffffffffffffffffffffffffffffffffffff1673ffffffffffffffffffffffffffffffffffffffff1614905092915050565b806003600084815260200190815260200160002060006101000a81548173ffffffffffffffffffffffffffffffffffffffff021916908373ffffffffffffffffffffffffffffffffffffffff1602179055505050565b60008273ffffffffffffffffffffffffffffffffffffffff166003600084815260200190815260200160002060009054906101000a900473ffffffffffffffffffffffffffffffffffffffff1673ffffffffffffffffffffffffffffffffffffffff1614905092915050565b600260008373ffffffffffffffffffffffffffffffffffffffff1673ffffffffffffffffffffffffffffffffffffffff16815260200190815260200160002060008154809291906001019190505550816001600083815260200190815260200160002060006101000a81548173ffffffffffffffffffffffffffffffffffffffff021916908373ffffffffffffffffffffffffffffffffffffffff160217905550600073ffffffffffffffffffffffffffffffffffffffff168373ffffffffffffffffffffffffffffffffffffffff16141515611df057600260008473ffffffffffffffffffffffffffffffffffffffff1673ffffffffffffffffffffffffffffffffffffffff16815260200190815260200160002060008154809291906001900391905055506003600082815260200190815260200160002060006101000a81549073ffffffffffffffffffffffffffffffffffffffff02191690555b808273ffffffffffffffffffffffffffffffffffffffff168473ffffffffffffffffffffffffffffffffffffffff167fddf252ad1be2c89b69c2b068fc378daa952ba7f163c4a11628f55a4df523b3ef60405160405180910390a4505050565b6000611e5a6121ce565b600060a0604051908101604052808981526020018881526020018673ffffffffffffffffffffffffffffffffffffffff168152602001858152602001600015158152509150600160068054806001018281611eb5919061221c565b91600052602060002090600502016000859091909150600082015181600001556020820151816001015560408201518160020160006101000a81548173ffffffffffffffffffffffffffffffffffffffff021916908373ffffffffffffffffffffffffffffffffffffffff1602179055506060820151816003019080519060200190611f4292919061224e565b5060808201518160040160006101000a81548160ff0219169083151502179055505050039050846007600083815260200190815260200160002060006101000a81548173ffffffffffffffffffffffffffffffffffffffff021916908373ffffffffffffffffffffffffffffffffffffffff1602179055508560086000838152602001908152602001600020600082825401925050819055508473ffffffffffffffffffffffffffffffffffffffff167f8947cb78db2ffa53132a4e627ea0e20920cf6edd68b7b07989687e1a28e0bac7826040518082815260200191505060405180910390a2809250505095945050505050565b60006120416122ce565b60006080604051908101604052808881526020018767ffffffffffffffff1681526020018681526020018581525091506009600088815260200190815260200160002080548060010182816120969190612307565b916000526020600020906004020160008490919091506000820151816000015560208201518160010160006101000a81548167ffffffffffffffff021916908367ffffffffffffffff160217905550604082015181600201908051906020019061210192919061224e565b506060820151816003015550509050867fe5b49d0afcc7ff69d7e3951a9be2177564ee3f4e219a8ae6b3d240b04d359f9a866040518080602001828103825283818151815260200191508051906020019080838360005b83811015612173578082015181840152602081019050612158565b50505050905090810190601f1680156121a05780820380516001836020036101000a031916815260200191505b509250505060405180910390a28092505050949350505050565b602060405190810160405280600081525090565b60a0604051908101604052806000815260200160008152602001600073ffffffffffffffffffffffffffffffffffffffff16815260200161220d612339565b81526020016000151581525090565b81548183558181151161224957600502816005028360005260206000209182019101612248919061234d565b5b505050565b828054600181600116156101000203166002900490600052602060002090601f016020900481019282601f1061228f57805160ff19168380011785556122bd565b828001600101855582156122bd579182015b828111156122bc5782518255916020019190600101906122a1565b5b5090506122ca91906123c7565b5090565b60806040519081016040528060008152602001600067ffffffffffffffff1681526020016122fa612339565b8152602001600081525090565b8154818355818115116123345760040281600402836000526020600020918201910161233391906123ec565b5b505050565b602060405190810160405280600081525090565b6123c491905b808211156123c05760008082016000905560018201600090556002820160006101000a81549073ffffffffffffffffffffffffffffffffffffffff02191690556003820160006123a39190612446565b6004820160006101000a81549060ff021916905550600501612353565b5090565b90565b6123e991905b808211156123e55760008160009055506001016123cd565b5090565b90565b61244391905b8082111561243f576000808201600090556001820160006101000a81549067ffffffffffffffff021916905560028201600061242e9190612446565b6003820160009055506004016123f2565b5090565b90565b50805460018160011615610100020316600290046000825580601f1061246c575061248b565b601f01602090049060005260206000209081019061248a91906123c7565b5b50565b6000612498612624565b60006060604051908101604052808573ffffffffffffffffffffffffffffffffffffffff168152602001876fffffffffffffffffffffffffffffffff1681526020018661ffff1681525091506001600080548060010182816124fa9190612672565b9160005260206000209060020201600085909190915060008201518160000160006101000a81548173ffffffffffffffffffffffffffffffffffffffff021916908373ffffffffffffffffffffffffffffffffffffffff16021790555060208201518160010160006101000a8154816fffffffffffffffffffffffffffffffff02191690836fffffffffffffffffffffffffffffffff16021790555060408201518160010160106101000a81548161ffff021916908361ffff16021790555050500390508373ffffffffffffffffffffffffffffffffffffffff167fc65a3f767206d2fdcede0b094a4840e01c0dd0be1888b5ba800346eaa0123c16826040518082815260200191505060405180910390a261261860008583611c92565b80925050509392505050565b606060405190810160405280600073ffffffffffffffffffffffffffffffffffffffff16815260200160006fffffffffffffffffffffffffffffffff168152602001600061ffff1681525090565b81548183558181151161269f5760020281600202836000526020600020918201910161269e91906126a4565b5b505050565b61271f91905b8082111561271b57600080820160006101000a81549073ffffffffffffffffffffffffffffffffffffffff02191690556001820160006101000a8154906fffffffffffffffffffffffffffffffff02191690556001820160106101000a81549061ffff0219169055506002016126aa565b5090565b905600a165627a7a723058205bb9a171cac21327a286ccefa5e0413259cb75e946bbe4849033b26c3251b4760029",
  "source": "pragma solidity 0.4.18;\n\nimport \"./IGVAsset.sol\";\nimport \"./IGVCampaign.sol\";\n\n// Based on:\n// https://raw.githubusercontent.com/axiomzen/cryptokitties-bounty/e0d9c2c90964b1bbb242d8e3e0d9a7786cf21182/contracts/KittyCore.sol\ncontract IGVCore is IGVAsset, IGVCampaign {\n    address public founderAddress;\n    address public ownerAddress;\n\n    uint public campaignEscrowAmount = 100000000000000000;\n    uint64 public campaignBlockDelay = 1000;\n\n    modifier onlyBy(address _account)\n    {\n        require(msg.sender == _account);\n        _;\n    }\n\n    function IGVCore() public {\n\n        founderAddress = msg.sender;\n        ownerAddress = msg.sender;\n\n        _createCampaign(0,0, 0, address(0), \"Genesis Campaign\");\n        _createToken(0, 0, \"Genesis Token\", 0);\n        _createCertificate(0, 0, address(0));\n    }\n\n\n    function createCampaign(\n        uint256 _startBlock,\n        uint256 _endBlock,\n        string _campaignName\n    )\n      public\n      payable\n      returns (uint)\n    {\n\n      require(msg.value == campaignEscrowAmount);\n      require((block.number + campaignBlockDelay) <= _startBlock);\n      require(_startBlock <= _endBlock);\n\n      return _createCampaign(_startBlock, _endBlock, campaignEscrowAmount, msg.sender, _campaignName);\n    }\n\n    function createToken(\n        uint256 _campaignId,\n        uint64 _supply,\n        string _name,\n        uint256 _price\n    ) public\n    {\n      require(campaignIndexToOwner[_campaignId] == msg.sender);\n      require(_supply > 0);\n      require(_supply < 10000);\n      require(_campaignId > 0);\n\n      Campaign storage campaign = campaigns[_campaignId];\n\n      require(campaign.veto == false);\n      require(block.number < uint256(campaign.startBlock));\n\n      _createToken(_campaignId, _supply, _name, _price);\n    }\n\n    function createCertificate(\n        uint128 _campaignId,\n        uint16 _tokenIdx\n    )\n      public\n      payable\n    {\n      // Ensure campaign is valid & active\n      require(_campaignId > 0);\n\n      Campaign storage campaign = campaigns[_campaignId];\n\n      require(campaign.veto == false);\n      require(uint256(campaign.startBlock) >= block.number);\n      require(uint256(campaign.endBlock) <= block.number);\n\n      // Ensure Token is still for sale\n      Token storage token = campaignTokens[_campaignId][_tokenIdx];\n      uint64 issued = campaignTokensIssued[_campaignId][_tokenIdx];\n\n      require(issued < uint64(token.supply));\n      require(msg.value == uint256(token.price));\n\n\n    }\n\n\n    // Escrow\n    function claimEscrow(uint256 _campaignId) public {\n      if (campaignEscrowBalance[_campaignId] == 0) {\n        revert();\n      }\n\n      require(campaignIndexToOwner[_campaignId] == msg.sender);\n\n      Campaign storage campaign = campaigns[_campaignId];\n      uint256 endBlock = uint256(campaign.endBlock);\n\n      require(block.number > endBlock);\n\n      uint256 amount = campaignEscrowBalance[_campaignId];\n      campaignEscrowBalance[_campaignId] = 0;\n\n      msg.sender.transfer(amount);\n    }\n\n\n    // Views\n    function getCampaign(uint256 _id)\n        public\n        view\n        returns (\n        uint256 startBlock,\n        uint256 endBlock,\n        address owner,\n        string campaignName\n    ) {\n        Campaign storage campaign = campaigns[_id];\n\n        startBlock = uint256(campaign.startBlock);\n        endBlock = uint256(campaign.endBlock);\n        owner = campaign.owner;\n        campaignName = campaign.campaignName;\n    }\n\n    function getToken(uint256 _campaignId, uint64 _tokenIdx)\n        public\n        view\n        returns(\n        uint256 campaignId,\n        uint64 supply,\n        string name,\n        uint256 price\n        ){\n\n        Token storage token = campaignTokens[_campaignId][_tokenIdx];\n\n        campaignId = uint256(token.campaignId);\n        supply = uint64(token.supply);\n        name = token.name;\n        price = uint256(token.price);\n        }\n\n    function getCertificate(uint256 _id)\n        public\n        view\n        returns (\n        uint128 campaignId,\n        uint16 tokenIdx,\n        address owner\n    ) {\n        Certificate storage cert = certificates[_id];\n\n        campaignId = uint128(cert.campaignId);\n        tokenIdx = uint16(cert.tokenIdx);\n        owner = cert.owner;\n    }\n\n    // Contract Management\n    function changeEscrowAmount(\n      uint64 _campaignEscrowAmount\n    )\n      public\n      onlyBy(ownerAddress)\n    {\n      campaignEscrowAmount = _campaignEscrowAmount;\n    }\n\n    function changeBlockDelay(\n      uint64 _campaignBlockDelay\n    )\n      public\n      onlyBy(ownerAddress)\n    {\n      campaignBlockDelay = _campaignBlockDelay;\n    }\n\n    function changeOwner(\n        address _newOwner\n    )\n      public\n      onlyBy(ownerAddress) {\n       ownerAddress = _newOwner;\n    }\n\n}",
  "sourcePath": "/home/hayek/proj/igave/contracts/IGVCore.sol",
  "compiler": {
    "name": "solc",
    "version": "0.4.18+commit.9cf6e910.Emscripten.clang"
  },
  "schemaVersion": "1.0.1",
  "updatedAt": "2017-12-31T08:32:47.274Z"
}